:020000040000fa
:080000000002040000000000f2
:020000040000fa
:100008009a0200009a0200009a0200009a02000078
:100018009a0200009a0200009a0200009a02000068
:10002800364300009a0200009a0200006a4100006c
:100038009a0200009a0200009a020000f0410000b3
:10004800544200009a0200009a0200004c4000004e
:100058009a0200009a0200009a0200009a02000028
:100068009a0200009a0200009a0200001c41000057
:100078009a0200009a0200009a0200009a02000008
:100088009a0200009a0200009a0200001043000041
:100098002e4300009a0200009e4000009a020000d1
:1000a8009a0200009a0200009a0200009a020000d8
:1000b8009a0200009a0200009a0200009a020000c8
:1000c8009a0200009a0200009a0200009a020000b8
:1000d8009a0200009a0200009a0200009a020000a8
:1000e8009a0200009a0200009a0200009a02000098
:1000f8009a0200009a0200009a0200009a02000088
:100108009a0200009a0200009a0200009a02000077
:100118009a0200009a0200009a0200009a02000067
:100128009a0200009a0200009a0200009a02000057
:100138009a0200009a0200009a0200009a02000047
:100148009a0200009a0200009a0200009a02000037
:100158009a0200009a0200009a0200009a02000027
:100168009a0200009a0200009a0200009a02000017
:100178009a0200009a0200009a0200009a02000007
:100188009a0200009a0200009a0200009a020000f7
:100198009a0200009a0200009a0200009a020000e7
:1001a8009a0200009a0200009a0200009a020000d7
:1001b8009a0200009a0200009a0200009a020000c7
:1001c8009a0200009a0200009a0200009a020000b7
:1001d8009a0200009a0200009a0200009a020000a7
:1001e8009a0200009a0200009a0200009a02000097
:0801f8009a0200009a020000c7
:020000040000fa
:100208009a0200009a0200009a0200009a02000076
:100218009a0200009a0200009a0200009a02000066
:10022800364300009a0200009a0200006a4100006a
:100238009a0200009a0200009a020000f0410000b1
:10024800544200009a0200009a0200004c4000004c
:100258009a0200009a0200009a0200009a02000026
:100268009a0200009a0200009a0200001c41000055
:100278009a0200009a0200009a0200009a02000006
:100288009a0200009a0200009a020000104300003f
:100298002e4300009a0200009e4000009a020000cf
:1002a8009a0200009a0200009a0200009a020000d6
:1002b8009a0200009a0200009a0200009a020000c6
:1002c8009a0200009a0200009a0200009a020000b6
:1002d8009a0200009a0200009a0200009a020000a6
:1002e8009a0200009a0200009a0200009a02000096
:1002f8009a0200009a0200009a0200009a02000086
:100308009a0200009a0200009a0200009a02000075
:100318009a0200009a0200009a0200009a02000065
:100328009a0200009a0200009a0200009a02000055
:100338009a0200009a0200009a0200009a02000045
:100348009a0200009a0200009a0200009a02000035
:100358009a0200009a0200009a0200009a02000025
:100368009a0200009a0200009a0200009a02000015
:100378009a0200009a0200009a0200009a02000005
:100388009a0200009a0200009a0200009a020000f5
:100398009a0200009a0200009a0200009a020000e5
:1003a8009a0200009a0200009a0200009a020000d5
:1003b8009a0200009a0200009a0200009a020000c5
:1003c8009a0200009a0200009a0200009a020000b5
:1003d8009a0200009a0200009a0200009a020000a5
:1003e8009a0200009a0200009a0200009a02000095
:0803f8009a0200009a020000c5
:020000040000fa
:100400002fe520000e7f22000e0188000000000072
:10041000000020000000e000020032000001200087
:10042000200288000c00070080d924000100200071
:1004300011000700000020000000e0000200320070
:1004400000000200000000008e4d020000000000cd
:100450000040da000000fe004440a900a0e12000b6
:100460000000e0000300320000002000a00188002e
:100470004440a80000000600910188008000780038
:100480000000eb0015003700e280400032a0b4000d
:100490009101ba00e280400032a0b4009102ba009b
:1004a000e280400032a0b4000002eb00472bde00e7
:1004b000f507b200602ce10004003a000059eb009f
:1004c0008301e900fdff3e00040037006128e100e0
:1004d000010032000082eb00040007001101ba00a5
:1004e0000200e000e8ff3a00000006003159ba00bf
:1004f0008301e9000c0032002159ba008301e900b0
:10050000080032000400e00003003a00e2804000ee
:1005100032a0b400f5ff370011d9ba008301e90019
:10052000faff3a008100e800e180400032a0b40008
:10053000000006000040da000000fe001004b100d8
:10054000070035009001b100040034007000b100d4
:10055000030035009001b10001003c0010000500cf
:10056000000005006900e100040035006d00e100b5
:10057000030034000002b100010032000000050059
:1005800010000500800078001106b100030035005e
:100590009101b10001003c000050a10000000600e4
:1005a0000a00fa00e20f500022003e008472800030
:1005b000e10f52000600320087232000462320006e
:1005c0002423200005232000e08f530004003a007c
:1005d000872220004622200024222000052220001d
:1005e000000028001500600003003a00800b78002e
:1005f00007002800958a730005402000948262005d
:1006000001003a0014a0a000820278000600370022
:10061000940378000710b200fdff3200b103fb0025
:10062000070b78008502e900e08f5200f8ff3a00de
:100630000800370034002000c0bf9f00e2bf9f00c9
:10064000b4bf9f00d1bf9f006a805700f606070025
:100650006fb99700020078000080fa0000000600e1
:10066000839f68000100e00002003d006000100070
:10067000e08018000300e00002003d00600111006e
:10068000e0811900050007004f00e00002003b0078
:1006900060001000e0801800000006006022b80032
:1006a000060220000000d0008180d2000482d20027
:1006b0008582d2000000a0000202520083825a000c
:1006c000030031000202420083824a000000a100c0
:1006d0000603e900f3ff3a0000000600889fbe0011
:1006e0008a9fbe003004be002005be000404440002
:1006f00085844c0006054d0087854d000898be0096
:100700000a90be000440e10005c8e10006d0e10007
:1007100007d8e10002003100680040001008e8003e
:100720004f05be004f04be00000006001000fa0096
:10073000889fbe008a9fbe00110020000605be00f3
:100740000404be003002be002003be00c4b79f00f8
:10075000d5b79f00e6b79f00f7b79f000802520089
:1007600089825a000a035b008b835b0084bf9f0071
:1007700095bf9f00a6bf9f00b7bf9f000498be0013
:100780000698be004fb29700dfb297006fb3970094
:10079000ffb397000820e10009a8e1000ab0e100da
:1007a0000bb8e100010039008000eb004f05be00ee
:1007b000108810004f04be000080fa000000060000
:1007c0001400fa00889fbe008a9fbe008c9fbe0066
:1007d0000006eb003e000700ccb79f00bcb79f00af
:1007e000acb79f009cb79f008cb79f000605be006a
:1007f0000404be000d0420004fb39700bfb2970061
:10080000860343002fb29700e00f530004003d0021
:100810003d0007000f004000b0ff07000300370055
:10082000390007000f004000c0ff0700cfb297005b
:1008300095bf9f00e08f5200090035002b00070094
:1008400014002000050020006033b8000000720092
:100850008180720002017300838173001c00070015
:100860000c06e8008d0f5600e3ff3a001fba970010
:10087000e00f520005003d000802be000a03be0062
:1008800000fe2f000f00400094ff07004faa9700c2
:10089000e00f520008003a000fb497009fb4970091
:1008a0002fb59700bfb59700d8b79f00e9b79f0055
:1008b000fab79f008bbf9f000c0007004f06be00d9
:1008c0004f05be004f04be000080fa000000060085
:1008d000010007000000060090b79f00a1b79f002d
:1008e000b2b79f00c3b79f000000060001000700d9
:1008f000000006001fb09700afb097003fb197000f
:10090000cfb19700000006004f2bde00f9ff070073
:1009100086837300858242004f23de00a7b79f00c5
:10092000868272000402420095b79f00ffaa9700da
:100930004f2bde00858242000602720084b79f00c2
:100940006faa97004f23de000402420086827200e5
:10095000f5af9f004f18de0000027200e5ff0700b0
:10096000e4af9f0000004000818048000201490080
:10097000838149000802be000a03be00d6ff0700bb
:1009800000fe2f0000000600881f780018002000dd
:10099000881f78008aff07008f87e9004f047800de
:1009a00000000600801feb0085ff07008f87e9002d
:1009b00000000600889fbe008a9fbe00e00f500026
:1009c000e08f5800e00f5900e08f59000c003d0007
:1009d0006044b8006055b8000000540081805c009d
:1009e00002015d0083815d001800200015000700f2
:1009f00008003d00180007000004eb000500370068
:100a00000004eb000f00070002003d001200070089
:100a100018002000dcff0700e00f54000600320041
:100a20006022b8006033b8000000520081805a0094
:100a300002015b0083815b004f05be004f04be00d6
:100a400000000600e00f5200e08f5a00e00f5b004c
:100a5000e08f5b00000006006044b8006055b800fd
:100a60000402540085825c0006035d0087835d00fc
:100a700000000600889fbe008a9fbe008c1f780081
:100a8000e00f5000e08f5800e00f5900e08f590050
:100a90000d003d006044b8006055b8001c00200007
:100aa0000000540081805c0002015d0083815d00d4
:100ab0000820e10009a8e1000ab0e1000bb8e1005c
:100ac0000d003d00080037000006eb00e00f52006b
:100ad000e08f5a00e00f5b00e08f5b0006003d00f6
:100ae0006044b8006055b8000402540085825c0080
:100af00006035d0087835d00aaff0700e00f560034
:100b0000060032006022b8006033b80000005200d6
:100b100081805a0002015b0083815b004f067800f0
:100b20004f05be004f04be0000000600889fbe00b7
:100b30008a9fbe008c1f78000006eb00e00f50007b
:100b4000e08f5800e00f5900e08f590007003d008a
:100b50006044b8006055b8001c002000000054003c
:100b600081805c0002015d0083815d00e00f520026
:100b7000e08f5a00e00f5b00e08f5b0007003d0054
:100b80006044b8006055b8000c00a2000402540094
:100b900085825c0006035d0087835d000c00070012
:100ba000e00f5600060032006022b8006033b80043
:100bb0000000520081805a0002015b0083815b00cb
:100bc0004f0678004f05be004f04be00000006002f
:100bd000889fbe008a9fbe008c9fbe000404b800a0
:100be0000506b8008904460060854e000606b80078
:100bf0000a054600e0854e000706b8008b05460052
:100c0000040eb800890446000a854e00e0854d00b8
:100c1000050eb8000a0546008b854e00060eb8008a
:100c20008b0546000416b8000a0546008b854e0069
:100c30000516b8008b054600041eb8008b0546005b
:100c40000800be000a01be004f06be004f05be00f0
:100c50004f04be000000060006c2b3000002780088
:100c600004007800b042780086cf5200fbff3200cb
:100c7000e9cf5200f9ff3200d6c2b30086cf52004e
:100c800003003a000002780016c0b30005003700e8
:100c90000043eb00b7c2b30087cf520001003a0017
:100ca000000278000000eb00020037006a00b90083
:100cb00000804200b402fb000503b100e98f52003e
:100cc000faff3600e04f5300010032000000ea0056
:100cd000000006000002780002003700315a780058
:100ce0000201e900e00f5100fcff3a00000006009d
:100cf0000002780002003700015a78000201e90082
:100d0000e00f5100fcff3a000000060015c0b300e0
:100d10000100200044e42000007288001172880065
:100d2000054a78000000060044e420008042eb0001
:100d300094cf120002003a0010002000f3ff0700d9
:100d40000072800011728000d2e62400631c24002f
:100d5000370507009403230005002000000242002d
:100d600081824a00047288001572880005007800ac
:100d700000f0a100000006000002780004007800e6
:100d800000027800b442780081cf520003003200a4
:100d9000e0cf5200f9ff3a000000eb00000006002f
:100da000b042780031c2520002003a00e0cf520057
:100db000fbff3a000400fb00000006000002780080
:100dc000b1427800055a7800e0cf5200fcff3a00ab
:100dd00000000600000278008042eb00b4cf120051
:100de000fdff3a000080ea0000004200000006001b
:100df000889fbe000004be000c0037000900780088
:100e0000f4ff0700890078000001780008007800ee
:100e1000b2040700e00f50000a0032000800e800aa
:100e20009900fb00d4ff070000047800e00f540095
:100e3000040032000042eb00984f1200efff3a002e
:100e40000004eb00080078004f04be00000006001c
:100e50000002eb00ea87470034728800889fbe00da
:100e6000820478008a9fbe008c9fbe000106780035
:100e70008e1f7800840f560001003200000e7800ab
:100e800000057800ba4678000a0478000d00fb00df
:100e9000b4fd0700e00f5000faff3a008d427800e1
:100ea000d4c2b30084cf520003003a00b8427800a5
:100eb0001ec0b3000500370000477800b4c2b3007d
:100ec00084cf520001003a00b842780004c3b30056
:100ed00084cf520012003a00b8427800e08f5400ec
:100ee00002003200f08f54005c003a0084c7b30067
:100ef00084cf52000300320084c5b30084cf520077
:100f000003003a00b842780009012000530037007e
:100f1000e08f540051003a00890020004f00370054
:100f20008046eb00e08f540002003a0089467800ca
:100f3000a9002000614bb900d6b79f00e7b79f001a
:100f40006055b8000503fb0085bf9f0006007800d0
:100f5000f6b79f0079fd07008fba97007fb397001f
:100f6000e00f5000050032000600780085fd070004
:100f700097ccb30007424000050037000603b100dc
:100f8000e90f530020003e0006cdb30006c2420028
:100f90008402fb00898f52001a003d000402fb000e
:100fa000cfa2de005fb19700efb19700f4b79f00ca
:100fb00085bf9f000a00be009d0407007fb2970016
:100fc0008fba970004034000858348000800e800ba
:100fd000860f5500878f5d00050036002402200033
:100fe000000478003472880010c0b3000600370097
:100ff000984278000605be00000478001dc0b300ca
:10100000d0ff37000040eb00e0cf56000300320075
:10101000e00f560001003200080ee900e14f5000d9
:1010200005003200e04f5700050032006005150052
:10103000e0851d00020037000085eb008085eb0095
:101040004f0778000a00be004f06be004f05be00e5
:101050004f04be00af00b100000006001dc0b30089
:10106000b4ff37000002eb00889fbe003472880096
:101070008a9fbe00810478008c9fbe0080057800a6
:10108000820678000b0678000c0578000a067800c6
:101090003c4478000800fb0032fd0700e00f5000e0
:1010a000f9ff3a00d4c2b300844f54000300320069
:1010b00004c2e900844f540002003a000a05e80027
:1010c00001003700044478000d01780089007800a1
:1010d0000a0078005eff0700e08f5400070032002e
:1010e000990f550024003a008b0c7800220037003d
:1010f000e00f5000e08f58000f003a00b4c2b30078
:10110000844f540004003a00e00f5000e08f580074
:1011100015003d0008003700d4c2b300844f5400ce
:1011200011003a000400200005002800840f500040
:10113000858f58000a00360024022000f0ff2f009f
:10114000f1ff2700347288006b424200844f540044
:1011500005003a00000020000100280002003700ce
:1011600060001000e08018004f06be004f05be0072
:101170004f04be0000000600998f5500dfff3a00c3
:10118000dbff37000c00fa00889fbe00f4ff270049
:1011900000047800d4bf9f008004eb0088bf9f004c
:1011a00099bf9f00a8bf9f00240c200078815700a2
:1011b000b4bf9f00cfb097007080570007000700b2
:1011c0000fba9700094a78000fba9700080052003a
:1011d0004f04be000080fa0000000600ef03b000dc
:1011e000889fbe008a9fbe008c9fbe00800678004c
:1011f0008e1f78000007eb00d1af9f00a2b79f00c1
:1012000066033700dfa8970054c2b3008100e800ee
:10121000d1af9f00844f500006003a0001027800d1
:101220000006eb0001c3b30000c2b300b7c2b300b5
:101230000e0037003d0290000404b20004003200aa
:101240001d027800004a7800840ee800050037008f
:101250000000fb008d0078005c030700e10f4000f8
:101260004e0332000e07e8004c033700840278007a
:10127000d2c2b30034437800824f530009003200d9
:1012800005003c00804f530008003200874f530098
:101290000c003a0007003700814f530009003a0064
:1012a000060037000c30a000f0ff37000c00a00053
:1012b000eeff37000c10a000ecff37000c20a00060
:1012c000eaff370062026600010032000c00a10054
:1012d00068026600010032000c20a1000602fb003b
:1012e0000403b100e90f52000c003e000503780032
:1012f0000002eb00b603fb006a22b9000703b1004d
:1013000086027800048243009603fb000703b100c5
:10131000e98f5300f7ff3600080037000002eb00aa
:10132000a7c2b300874f530004003a00afb1970043
:101330008502e80043027800a3b79f000003eb009a
:1013400096b79f00e6c2b300954f13000c003a0019
:101350000ce0a00064435300d54f1300030032009b
:10136000050378000000eb0009003700afb39700d9
:101370008502e80047047800a7b79f0098b79f0050
:1013800005037800090037006a00b90000804300b7
:1013900086027800b603fb000703b100e98f530013
:1013a000f9ff360090b79f00f5ff3700b64278008e
:1013b000cac6b300d6af9f008acf520025003200c4
:1013c0000f003c0036c6b30086cf52009e003200ac
:1013d00004003c00e0cf5200f50232006b435300a2
:1013e0000f00370046c6b30086cf52001700320008
:1013f0006543430086cf5200b2003a001300370025
:1014000036c7b30086cf52001f00320007003c00f1
:101410006443530086cf5200140032000643e800b4
:1014200086cf5200a7003a001300370056c7b3001a
:1014300086cf5200aa0032006343430086cf520099
:10144000a0003a00e5779f000d003700e5779f0088
:10145000a5003700f00366000501200001003200fe
:10146000050028000c867200d0ff3700e5779f004a
:101470000c60a0009c003700e5779f000c50a00096
:101480000c70a00098003700afb59700e5779f007b
:10149000cb027800abb79f00b5b79f00e08f52003a
:1014a00002003a0041e12000b1b79f003fb397002e
:1014b0008002eb00010037008502e800e6c37a00f5
:1014c000e0cf5300fcff3a00c5b79f001fb1970063
:1014d000e00f510005003200cfb19700830f51009b
:1014e0000200310082027800c5b79f00cfb297009a
:1014f0000004eb00850f5200010036000504520085
:101500006806660009c2b3000f00320029003700e8
:101510003d0290000404b200040032001d02780075
:10152000094a7800840ee800050037008d00780035
:1015300000022000a5020700e10f40000100320078
:101540000e07e8000804e900e00f5400f0ff3a003d
:101550000084eb0017003700bd0290000504b200c4
:1015600009003200880278009d0378003543780036
:10157000864b780005047800870ee800e04f5300a2
:101580000a003a0011003700880278008d007800c8
:101590003500fb0084bf9f00050478008b02070024
:1015a0000fba9700e10f4000080032000e07e80074
:1015b000060037000c027800080678003fb4970058
:1015c000cfb497005fb59700efb597008902780018
:1015d0008504e900e08f5200dfff3a00b8b79f00b2
:1015e000c9b79f00dab79f00ebb79f000c047800e3
:1015f00009c2b30004067800e00f56000f003a005d
:10160000660237003d0290000404b200040032007c
:101610001d027800094a7800840ee80005003700b2
:101620008d0078000002200068020700e10f4000f2
:10163000010032000e07e8000804e900e00f540042
:10164000f0ff3a0055023700afb097007003660014
:1016500041047800a1b79f00cfc4de0009057800df
:101660008a0578000800be000a01be004800de00be
:10167000c80add0000807200e0779f00e00f530091
:1016800009003200e04f500007003200e14f4000f7
:101690000500320026002000f0779f00887f9f0021
:1016a000c6b79f000300370017002000c7b79f0090
:1016b000f8779f0078fb2f0008844700b8b79f0099
:1016c00082ff370069fb2f001a0020008984470041
:1016d000e5779f00b9b79f00cab79f007bff37002f
:1016e000e5779f000c0cb3008c027800050cb2006b
:1016f0003b003a00e00f560005003d00afb29700f6
:101700004501be004500be00a5b79f000f00370091
:10171000f0026600120032002fb497004803be00aa
:10172000f69f9f0087a79f00a8b79f009802900090
:10173000cfaade0095a79f00a5a79f007f989700de
:101740008fa097001fa19700afa19700b0b79f008f
:10175000c1b79f00d2b79f00e3b79f000b003700cf
:10176000afb09700c102780005047800cfc4de0056
:10177000090578008a057800a1b79f00b8b79f00d7
:10178000c9b79f00dab79f00ebb79f003fb0970043
:10179000cfb097005fb19700efb19700e00f500016
:1017a000e08f5800e00f5900e08f590032003d00f3
:1017b0006000b8006011b8003fb49700cfb4970044
:1017c0005fb59700efb597003c00b30008045000e8
:1017d000898458000a0559008b855900220037007a
:1017e000e00f560005003d00afb297004501be0076
:1017f0004500be00a5b79f000f003700f00266004d
:10180000120032002fb497008004eb004803be00a2
:101810000005eb0096af9f00a7af9f00b9af9f00f8
:10182000caaf9f001fa89700afa897003fa99700d5
:10183000cfa99700a8b79f00b0b79f00c1b79f007e
:10184000d2b79f00e3b79f000b003700afb09700ff
:10185000c1027800a1b79f000504780009002000ac
:101860000a0020000b002000b8b79f00c9b79f00f6
:10187000dab79f00ebb79f009fb49700e08f54004a
:101880000d003a001a0020003fb09700cfb097003b
:101890005fb19700efb197009ab79f00e00f50003b
:1018a000e08f5800e00f5900e08f5900020032002d
:1018b0008000eb0091b79f000c0178000504200028
:1018c000020cb20082b79f00850f51003400320035
:1018d00003003c00e00f51000800320048003700d0
:1018e000050820008fb19700858f51001400320049
:1018f000050c2000858f510041003a00a6d520003c
:1019000015c0b3003600be003601be003fb49700dc
:10191000cfb497005fb59700efb597000040e100a6
:1019200001c8e10002d0e10003d8e1003300390032
:101930008542e800f4cf5200f2ff3a002f00370052
:1019400015c0b30000012000010020006011b800a4
:101950003fb49700cfb497005fb59700efb59700fd
:101960000040e10001c8e10002d0e10003d8e1003d
:1019700022003900490020000000d0008180d20000
:101980000281d2008381d2008904e900faff3a0083
:101990008542e800f0cf5200edff3a001700370013
:1019a00015c0b30080002000010020006011b800c5
:1019b0003fb49700cfb497005fb59700efb597009d
:1019c0000040e10001c8e10002d0e10003d8e100dd
:1019d0000a003900390020000000d0008180d200c8
:1019e0000281d2008381d2008904e900faff3a0023
:1019f0008542e800f5cf5200edff3a00e5779f0001
:101a00006f7597009fb597008a02fb008b8f52007d
:101a100002003d00eb779f00040037001fb09700e5
:101a2000850f500001003d0095b79f00e00f520068
:101a300003003200e3026600010032000402e90004
:101a40000500240085026600060032009fb0970062
:101a5000810f5200020034000102520001003700e1
:101a60000002eb006f7197008001eb008202fb0027
:101a7000f3af9f00850f5200020034008502520030
:101a8000f5af9f00640266003b003200e202660090
:101a900061026600e08f520011003200bd0290002a
:101aa0000504b200080032009d027800b6c2b300ff
:101ab000e00f52000100320006c3e800864a7800b9
:101ac000850ee80015003700b0022000e00f52003c
:101ad000010032000080e8008d0078000c00370023
:101ae000e00f52000e0032003d0290000404b200ec
:101af000050032001d02780005c2b300054a7800d7
:101b0000840ee800050037008d00780000022000f8
:101b10002e010700e10f4000010032000e07e8002f
:101b20007faa9700e00f52004f00320008c3b300b5
:101b3000840478003d0290000404b20004003200e6
:101b40001d027800084a7800840ee800050037007e
:101b50008d007800000320001c010700e10f400009
:101b6000010032000e07e8008904e900f1ff3a00a5
:101b7000f9af9f003c003700ffaa9700e08f5200aa
:101b8000140032006802660012003a0008c2b30076
:101b9000850478003d0290000404b2000400320085
:101ba0001d027800084a7800840ee800050037001e
:101bb0008d0078000002200004010700e10f4000c2
:101bc000010032000e07e8008904e900f1ff3a0045
:101bd000f9af9f00e202660061026600e08f5200ea
:101be00011003200bd0290000504b200080032006e
:101bf0009d027800b6c2b300e00f5200010032002f
:101c000006c3e800864a7800850ee8001500370014
:101c1000b0022000e00f5200010032000080e80016
:101c20008d0078000c003700e00f52000e003200eb
:101c30003d0290000404b200050032001d0278004d
:101c400005c2b300054a7800840ee800050037009d
:101c50008d00780000022000dc000700e10f40004a
:101c6000010032000e07e8001fb3970025d52000c1
:101c70000602e900f0046600c223dd000c057800ce
:101c8000c7a79f000a02b2006323b900e99f9f0023
:101c9000060478004322dd00b8a79f0085024200b9
:101ca000da9f9f00e5af9f00a30037009fb5970024
:101cb0000fb097008b05e900010420009bb79f003f
:101cc000810f50007300320003003c00e00f500011
:101cd000080032007e003700040820000fb1970092
:101ce000840f510056003200040c2000840f510074
:101cf00077003a00e00f56001f003d00efa9970063
:101d00003304be002305be003fb09700cfb097005c
:101d10005fb19700efb197000802be000a03be0052
:101d200019fb07000802be000a03be00e0779f000f
:101d30000000fb00cf80de00010178008201780006
:101d40007afb07003fb29700cfb297005fb39700ce
:101d5000efb397000002520081825a0002035b0039
:101d600083835b00b4b79f00c5b79f00d6b79f00c1
:101d7000e7b79f002e003700ef9a9700e08f5200e0
:101d8000220032006fab97003fb29700cfb29700ae
:101d90003604be002605be000400be000801be00d9
:101da00084bf9f00f5b79f000005eb003bfa0700da
:101db0000801be00e0779f000000fb00cf80de003e
:101dc0001b0107000fba9700ffb297008aaf9f0070
:101dd0000004520081845a00d8a79f00e9a79f0001
:101de0008004eb00f9a79f005fa09700efa0970089
:101df0007fa197008fa99700b0b79f00c1b79f0040
:101e0000d2b79f00e3b79f0009003700efa8970003
:101e10003fb1970011027800110009000481d80039
:101e2000a4002000110009000480d800e1779f0081
:101e3000ef7197000343b000e3779f002400370061
:101e400034e02000df9a9700e08f5200010032005a
:101e500024df20003fb09700cfb097005fb197001c
:101e6000efb197004fa397000603e9000500330088
:101e70008301d1000281d3008180d3000080d30090
:101e8000f9ff37006f00600064407800e0779f0042
:101e90000f0037003fb29700cfb297005fb39700b3
:101ea000efb397003fa497000804e9000500330052
:101eb0008703d1000683d3008582d3000482d30038
:101ec000f9ff3700674262000443b000e4779f00e7
:101ed0003d0290000404b200070032009d02780029
:101ee0006f729700844a7800850ee800e04f520038
:101ef00007003a0007003700ef7497008d00780064
:101f00000900fb0031000700e10f40000100320032
:101f10000e07e8004fa59700bfa597006fa8970090
:101f200064055500e385550068005000caa79f006e
:101f3000bba79f00e0af9f009fb09700e08f5000cd
:101f40005aff3a0068066600140032007fa9970025
:101f5000e00f51001100340008c2b3008204780081
:101f60003d0290000404b200040032001d0278001b
:101f7000084a7800840ee800050037008d007800dc
:101f80000002200011000700e10f400001003200b4
:101f90000e07e8008904e900f1ff3a00dfa9970085
:101fa00013407800e0779f00e04f500095fc3a0026
:101fb0000e0078004f0778004f06be004f05be00a8
:101fc0004f04be00ef03b10000000600889fbe0072
:101fd000010478008084eb0038029000e202620085
:101fe0003b00320004037800980290000620b20003
:101ff00002003a00e08f520035003a000490a00041
:102000008004780034049800f90fb200e08f520089
:1020100002003a00a8029000050c7800ea8f5400f4
:1020200005003a000408b20003003a008800780076
:10203000d0002000e5ff070018029000d8029000b1
:10204000850f52000b0032000402e80015c0b300f7
:102050001404980018027800094a7800040ce8007b
:10206000a4e42000054a7800ea8f540018003a00e2
:102070000500370009407800880078002800070034
:102080008004780012003700380290000410b2007b
:102090000f00320018019000a80090004800900046
:1020a0003ff9070018029000840f5000040032002e
:1020b000380290000403b300340498008084eb00dd
:1020c0000002eb001404980028029000040c780031
:1020d000090078004f04be00000006000b00370026
:1020e00030427800e04f5200030032000201e90064
:1020f000b14f5200050032000480fb009542780089
:102100008582fb0005005000000006008102780077
:10211000e00f5100f2ff3a000200780000000600d4
:102120000200fa00889fbe0001047800a0ff9f0013
:1021300038029000840278000504b20002003200e8
:102140000000fb0035003700e202620005003a00a3
:102150000403b30015049800340498000080eb00d9
:102160002e003700d8049000e08f540006003a009b
:1021700012002000e68057004800900008f9070090
:102180001904980023003700a8029000e08f520045
:1021900008003a00e5e420000430a000250498007f
:1021a000050c7800340498002500200055049800a0
:1021b0001504980018019000a800900048009000b5
:1021c000f7f80700280290008082eb0015049800c1
:1021d000affa9700054a7800040ce8002ffa970040
:1021e000ea4f52000b003a00380290000410b2008f
:1021f0000800320018019000a800900048009000ec
:10220000e7f807000002eb00a80290001404980011
:10221000050c78002ffa97000400fb004f04be0065
:102220000080fa000000060000c0da00000006008e
:10223000020ab900001bb9000200b8008100420088
:082240008100430000000600cc
:020000040000fa
:10224800534f00004d4f000000440000454200007d
:1022580055470000005000006f72000074610000d4
:102268006c200000636f00006c6c0000617000005f
:1022780073650000642100000d0a0000005b000087
:1022880044420000475d0000205000004f5200000b
:10229800544100004c200000495300002049000030
:1022a800444c0000494e0000470d00000a000000a1
:1022b800736b000079200000706f000072740000da
:1022c800616c0000206f0000706500006e65000002
:1022d800643a000020540000696d00006572000037
:1022e8002c200000495200002c200000534f000011
:1022f8004d4f00002c20000052470000422c0000e7
:10230800204c00004344000020610000637400007a
:102318006976000061740000656400000d0a000021
:10232800004100007175000061200000706f00001e
:1023380072740000616c0000206f0000706500007e
:102348006e650000643a000020540000696d0000ca
:10235800657200002c200000495200002c2000006b
:10236800534f00004d4f00002c2000005247000042
:10237800422c0000204c0000434400002061000073
:1023880063740000697600006174000065640000f1
:102398000d0a00000049000063650000207000007d
:1023a8006f720000746100006c2000006f70000004
:1023b800656e0000656400003a2000005469000062
:1023c8006d650000722c000020490000522c0000ae
:1023d800205300004f4d00004f2c000020520000f9
:1023e800474200002c2000004c430000442000001d
:1023f8006163000074690000766100007465000084
:10240800640d00000a0000004669000072650000c3
:10241800207000006f720000746100006c200000e2
:102428006f700000656e0000656400003a200000cf
:10243800546900006d650000722c000020490000fe
:10244800522c0000205300004f4d00004f2c00007c
:1024580020520000474200002c2000004c4300009e
:102468004420000061630000746900007661000088
:1024780074650000640d00000a000000417200004d
:1024880063200000706f000072740000616c00002f
:10249800206f0000706500006e650000643a00005f
:1024a80020540000696d0000657200002c200000b7
:1024b800495200002c200000534f00004d4f0000ef
:1024c8002c20000052470000422c0000204c000045
:1024d8004344000020610000637400006976000036
:1024e80061740000656400000d0a000000500000df
:1024f8006c610000736d000061200000706f0000c7
:1025080072740000616c0000206f000070650000ac
:102518006e650000643a000020540000696d0000f8
:10252800657200002c200000495200002c20000099
:10253800534f00004d4f00002c2000005247000070
:10254800422c0000204c00004344000020610000a1
:10255800637400006976000061740000656400001f
:102568000d0a000000420000414400002050000015
:102578004f520000544100004c210000210d000082
:102588000a0000004c41000054430000545200006f
:102598004c200000004300006f6d00006d610000da
:1025a8006e6400003a20000027000000270d00009c
:1025b8000a000000506900006e2000006e610000f3
:1025c8006d6500003a2000002700000056610000f9
:1025d8006c750000653a00002027000000760000b6
:1025e800616c000075650000206e00006f740000cb
:1025f80020720000656300006f6700006e690000cc
:102608007a650000640d00000a00000052410000d5
:1026180030000000504900004e20000052410000e8
:102628003020000053450000540d00000a0000004f
:102638005241000031000000504900004e200000c7
:10264800524100003120000053450000540d0000a5
:102658000a0000005241000032000000504900000a
:102668004e20000052410000322000005345000077
:10267800540d00000a000000524100003300000021
:10268800504900004e200000524100003320000055
:1026980053450000540d00000a000000524100009c
:1026a80034000000504900004e2000005241000054
:1026b8003420000053450000540d00000a000000bb
:1026c8005242000030000000504900004e20000037
:1026d800524200003020000053450000540d000015
:1026e8000a0000005242000031000000504900007a
:1026f8004e200000524200003120000053450000e7
:10270800540d00000a000000524200003200000090
:10271800504900004e2000005242000032200000c4
:1027280053450000540d00000a000000524200000a
:1027380033000000504900004e20000052420000c3
:102748003320000053450000540d00000a0000002b
:102758005242000034000000504900004e200000a2
:10276800524200003420000053450000540d000080
:102778000a000000706900006e6e0000616d0000c4
:10278800652000006e6f0000742000007265000074
:10279800636f0000676e0000697a000065640000de
:1027a8000d0a00000000000000000000000000000a
:1027b800545200004953000043540000524c00009a
:1027c80020000000415400004d4f00004445000027
:1027d80020000000415400004d4f00004445000017
:1027e800206500006e610000626c000065640000f6
:1027f8002c20000042540000207200006573000085
:10280800657400000d0a000000410000544d0000ee
:102818004f44000045200000646900007361000017
:10282800626c0000656400002c2000004254000027
:102838002072000065730000657400000d0a000036
:1028480000560000616c00007565000020660000fd
:102858006f720000206500006e610000626c00006d
:10286800652e0000415400004d4f00004445000013
:102878002069000073200000696e00007661000086
:102888006c690000640d00000a000000415400005b
:10289800434d000044200000004100005420000087
:1028a800636f00006d6d0000616e0000643a000007
:1028b80020270000000d00000a000000524500001b
:1028c80047430000545200004c2000000052000012
:1028d800656700006973000074650000723a0000c3
:1028e800202700000055000031420000415500003b
:1028f80044000000553100004241000055440000ea
:1029080020430000686100006e67000065640000f5
:102918000d0a000000550000324200004155000039
:1029280044000000554100005254000032200000cd
:102938006261000075640000207700006173000088
:1029480020630000686100006e6700006564000095
:10295800202d0000205500003220000043680000b0
:10296800616e00006e6500006c200000726500005a
:1029780073650000742100000d0a00000055000076
:102988006e720000656300006f6700006e690000ea
:102998007a6500006420000052450000470d0000e1
:1029a8000a00000000000000000000000000000015
:1029b800000000004b45000059530000494d00003d
:1029c80020000000506f000072740000616c00006d
:1029d8003a20000027000000534b00005900000077
:1029e80057410000544500005200000049430000d0
:1029f8004500000046490000524500000050000014
:102a08004c410000534d0000410000004c490000bb
:102a180047480000544e0000494e0000470000009f
:102a28004541000052540000480000004e4f00008d
:102a38004e450000004b000068610000726f000006
:102a48006e270000732000006b650000797300009a
:102a580020720000656d00006f760000656400005c
:102a680020660000726f00006d2000006c6f00008f
:102a7800636b0000212000005468000065200000fe
:102a8800706f000072740000616c00002069000023
:102a980073200000636f00006c6c00006170000020
:102aa800736900006e670000212100000d0a000014
:102ab800005900006f750000207000007574000058
:102ac8002074000068650000206e00006f7400002c
:102ad8002d6100002d6b0000657900002069000061
:102ae8006e20000074680000652000006c6f000014
:102af800636b00002e2000004e6f00007468000019
:102b0800696e0000672000006861000070700000b6
:102b1800656e0000732e00002057000068610000f9
:102b2800742000006469000064200000796f0000d0
:102b3800752000006578000070650000637400006f
:102b48003f2000004765000074200000476f000028
:102b58006f640000204c0000756300006173000082
:102b68002e0d00000a000000506f00007274000073
:102b7800616c0000206e0000616d0000652000009f
:102b88006e6f00007420000072650000636f000023
:102b9800676e0000697a0000656400002c20000060
:102ba800736900006d7500006c61000074690000b5
:102bb8006f6e000020610000626f000072740000f8
:102bc800656400000d0a00000053000077690000ea
:102bd80074630000686900006e67000020550000fb
:102be800415200005420000063680000616e00003c
:102bf8006e6500006c7300002066000061690000cb
:102c08006c650000640d00000a00000052470000d7
:102c180042430000545200004c200000004c0000c9
:102c280045440000233a00002027000025690000e1
:102c3800270d00000a00000052760000616c0000b9
:102c48003a20000027250000692700000d0a00002f
:102c580000470000766100006c3a00002027000061
:102c680025690000270d00000a00000042760000d8
:102c7800616c00003a200000272500006927000049
:102c88000d0a0000004c00004344000043540000bb
:102c9800524c0000200000005468000065720000db
:102ca800652000007761000073200000616e00005d
:102cb80020650000727200006f7200002070000032
:102cc80061720000736900006e67000020740000e4
:102cd80068650000206900006e70000075740000cf
:102ce8002073000074720000696e0000670d000018
:102cf8000a000000496e0000707500007420000092
:102d080073740000726900006e6700003a200000ca
:102d180027000000526f0000772c0000206300009d
:102d28006f6c00003a2000002700000025690000b1
:102d38002c25000069000000696e00007661000023
:102d48006c69000064200000636f00006c7500006f
:102d58006d6e0000206e0000756d00006265000059
:102d6800720d00000a000000696e00007661000024
:102d78006c69000064200000726f0000772000007a
:102d88006e7500006d620000657200000d0a00009b
:102d98000053000074720000696e00006720000094
:102da8007761000073200000746f00006f2000003e
:102db8006c6f00006e6700002c200000616e000040
:102dc8006420000077610000732000007472000026
:102dd800756e0000636100007465000064200000e7
:102de800746f00003a20000027000000444f0000e4
:102df8004e45000020570000524900005449000089
:102e08004e470000205400004f2000004c430000b3
:102e1800440d00000a000000534f00004d4f000011
:102e2800504c00004159000020000000536f000082
:102e38006e670000206e0000756d0000626500007e
:102e4800723a00002027000025690000270d0000c5
:102e58000a0000004e6f000074680000696e0000f0
:102e680067200000696e000020740000656d000096
:102e780070200000666300006e0d00000a0000006c
:102e8800534f00004d4f0000564f00004c200000eb
:102e9800005600006f6c0000756d0000653a000078
:102ea8002027000025690000270d00000a00000007
:102eb800566f00006c7500006d650000206300000f
:102ec800686100006e670000656400000d0a00007c
:102ed800004300006f6d00006d6100006e6400002b
:102ee80020720000656300006569000076650000d7
:102ef800643a00002027000025730000270d000019
:102f08000a000000506f000072740000616c00003d
:102f180020740000696d00006520000063680000ef
:102f2800616e000067650000207400006f3a0000c1
:102f38002027000025690000005000004c410000d7
:102f4800594900004e470000204d00004f4d000039
:102f5800532000005350000041470000484500003e
:102f68005454000049200000534f00004e47000011
:102f7800204000002032000030200000766f000062
:102f88006c7500006d650000200d00000a0000004f
:102f980054550000524e0000494e000047200000e2
:102fa8005448000045200000564f00004c550000d2
:102fb8004d4500002055000050210000212100004f
:102fc800210d00000a00000054550000524e000078
:102fd800494e0000472000005448000045200000ea
:102fe800564f00004c5500004d450000204400009d
:102ff8004f5700004e21000021210000210d000044
:103008000a00000052790000616e0000206900008b
:1030180073200000636f00006f6c00002e2e00000c
:10302800206b0000696e0000646100000050000021
:103038003a490000444c000045200000207c000074
:10304800005000003a4300004f4c00004457000075
:103058004e7c0000005000003a5300004b5900001d
:1030680020200000207c0000005000003a5700009b
:103078004154000045520000207c00000050000030
:103088003a4600004c4100004d450000207c0000fd
:10309800005000003a410000524300002020000088
:1030a800207c0000005000003a4900004345000021
:1030b80020200000207c0000005000003a50000052
:1030c8004c410000534d0000417c000000500000be
:1030d8003a4500004152000054480000207c00009e
:1030e800005400004f5000004e3a00002532000006
:1030f8006900000054430000444e00003a250000d7
:1031080032690000005b00005245000041440000a5
:10311800595d000000480000503a00005b2500009f
:10312800337500005d7c000000530000544100002e
:10313800543a0000202500006900000042540000b5
:10314800484500004152000054200000007400006f
:10315800757200006e650000642000006f6e00004c
:10316800206200006c750000657400006f6f00003d
:103178007468000020680000656100007274000037
:103188006265000061740000730d00000a00000011
:1031980074750000726e000065640000206f000006
:1031a80066660000206200006c750000657400000f
:1031b8006f6f0000746800002068000065610000ff
:1031c800727400006265000061740000730d0000f5
:1031d8000a000000777200006f6e00006720000090
:1031e800766100006c750000650d00000a000000a3
:1031f8005b450000525200003e550000325200006c
:1032080058490000455d000045720000726f0000db
:103218006e6500006f75000073200000686500008f
:103228006172000074620000656100007420000093
:10323800726500006365000069760000656400003f
:1032480020660000726f00006d20000050490000e9
:10325800552e0000200d00000a0000005b50000001
:10326800495500005d2d00002d3e0000434f000031
:103278004e4e000045430000540d00000a20000097
:10328800506c000061790000657200002069000040
:1032980064200000697300003a2000002725000020
:1032a8002e32000078200000252e00003278000021
:1032b800270d00000a500000616300006b650000e4
:1032c800743a000020270000252e00003278000004
:1032d8002c2500002e320000782c0000252e00003e
:1032e800327800002c2500002e320000782c0000d7
:1032f800252e0000327800002c2500002e32000018
:10330800782700000d0a0000005b0000455200000d
:10331800523e000055320000525800004945000056
:103328005d450000727200006f6e0000656f00005e
:103338007573000020490000525400005820000016
:1033480070610000636b000065740000207200006b
:103358006563000065690000766500006420000070
:10336800667200006f6d0000205000004955000093
:103378002e0d00000a0000005b50000049550000b7
:103388005d2d00002d3e0000555000004441000016
:10339800544500000d0a0000485000003a20000083
:1033a80027250000692700007c45000046460000ec
:1033b80045430000543a000020270000256900001a
:1033c800277c00005354000041540000555300006e
:1033d8003a20000027250000692700000d0a000098
:1033e80050610000636b0000657400003a20000023
:1033f800272500002e320000782c0000252e000022
:10340800327800002c2500002e320000782c0000b5
:10341800252e0000327800002c2500002e320000f6
:10342800782c0000252e000032780000270d0000bf
:103438000a0000005b500000495500005d2d0000a7
:103448002d3e0000414300004b0d00000a00000023
:103458005b450000525200003e5500003252000009
:1034680058490000455d00004120000070610000df
:10347800636b000065740000207700006974000029
:1034880068200000616e0000207500006e72000068
:10349800656300006f6700006e6900007a650000d0
:1034a80064200000667500006e6300007469000007
:1034b8006f6e000020620000797400006520000033
:1034c80077610000732000007265000063650000ea
:1034d800697600006564000020660000726f0000d5
:1034e8006d2000007468000065200000504900004d
:1034f800552e00000d0a0000004500007272000001
:103508006f6e0000656f000075730000207000008a
:10351800616300006b65000074200000746900009e
:103528006d650000642000006f75000074200000c5
:1035380026200000646900007363000061720000c7
:1035480064650000643a000020270000252e000072
:10355800327800002c2500002e320000782c000064
:10356800252e0000327800002c2500002e320000a5
:10357800782c0000252e0000327800002c25000051
:103588002e320000782700000d0a000000530000ca
:103598006f6d000065740000686900006e670000c8
:1035a8002077000065690000726400002068000050
:1035b80061700000706500006e6500006420000006
:1035c8007769000074680000206200007420000021
:1035d800726500006365000069760000650d0000f3
:1035e8000a000000646500006c610000792000009a
:1035f800312000007365000063200000746f000034
:103608006f6b0000202700002569000027200000bc
:10361800756e000069740000730d00000a20000038
:1036280074310000203d00002027000025690000bb
:10363800272c000020740000322000003d200000ec
:1036480027250000692700000d0a0000004f000030
:103658004b00000046410000494c000000450000b6
:10366800525200004f520000004100005420000058
:1036780072650000706c0000793a00002027000095
:1036880025730000270d00000a0000006b440000ad
:103698002400000041540000434d00004400000095
:1036a8005245000047430000545200004c000000ff
:1036b8004b45000059530000494d0000004c0000e4
:1036c8004344000043540000524c000000500000e6
:1036d8004f520000525300005400000054450000af
:1036e80053540000005200004742000043540000b9
:1036f800524c000000410000544d00004f440000af
:10370800450000004c430000444300004c520000b8
:10371800004c000043440000204300004c450000da
:1037280041520000454400000d0a0000005200000c
:1037380047420000434c000052000000524700007e
:1037480042200000434c0000454100005245000063
:10375800440d00000a000000534f00004d4f0000c8
:10376800504c000041590000005300004f4d00002c
:103778004f5600004f4c0000005000004f52000010
:10378800544900004d45000000540000494d000018
:103798004500000042540000505500005348000006
:1037a8000042000054480000454100005254000007
:1037b8000054000045530000544900005200000026
:1037c8005445000053540000534f00004d4f000073
:1037d8000054000045530000544c000043440000ce
:1037e800004300006f6d00006d6100006e64000012
:1037f800206e00006f7400002072000065630000f6
:103808006f6700006e6900007a650000640d0000b3
:103818000a000000496e0000707500007420000066
:103828006f6e000020550000312000007761000015
:10383800733a00002027000025730000270d0000c0
:103848000a000000496e0000707500007420000036
:10385800776900006e6400006f7700002074000034
:10386800696d00006520000065780000686100004f
:103878007573000074650000640d00000a00000004
:10388800496e000070750000742000006f6e000023
:10389800205500003220000077610000733a0000d4
:1038a8002027000025730000270d00000a000000f3
:1038b800200d00000a4200004f4f0000544900004c
:1038c8004e470000204c0000414e000054450000c7
:1038d800524e00002e2e00002e0d00000a0000009f
:1038e8004c4100004e540000455200004e2000009c
:1038f8006f73000020760000362e000030000000b4
:1039080043680000617200006c69000065200000d7
:1039180069730000204400004f500000452100005a
:10392800005b000044420000475d00002d2d0000b0
:103938003e20000044690000642000006e6f000013
:1039480074200000636f00006e6e00006563000065
:1039580074200000425400002077000069740000c1
:103968006820000050490000550d00000a000000c2
:103978005b440000424700005d2d00002d3e000022
:103988002042000054200000436f00006e6e0000cb
:103998006563000074650000640d00000a00000003
:1039a80057540000460d00000a0000000d0a0000f0
:1039b800424f00004f5400002053000055430000c0
:1039c80043450000535300000d0a00000d0a000093
:1039d8000d0a0000000a0000554100005254000082
:1039e800204500004e4300004f5500004e54000093
:1039f80045520000454400002041000020540000ca
:103a0800524100004e5300004d490000535300003e
:103a1800494f00004e2000005b520000585d000036
:103a280020450000525200004f5200002041000083
:103a38004e4400002057000041530000205200006f
:103a480045530000455400000d0a0000000d000019
:103a58000a55000041520000543200002045000081
:103a68004e4300004f5500004e54000045520000e0
:103a7800454400002041000020540000524100004d
:103a88004e5300004d49000053530000494f0000b9
:103a98004e2000005b520000585d000020450000e9
:103aa800525200004f520000204100004e440000d6
:103ab80020570000415300002052000045530000e9
:103ac800455400000d0a0000004b00004559000055
:103ad80020500000494e00002057000041530000cc
:103ae80020430000484100004e47000045440000c4
:103af8000d0a0000004b000045590000205200004c
:103b080045410000443a0000203100000d0a000041
:103b1800004b0000455900002052000045410000bc
:103b2800443a0000203000000d0a00000053000055
:103b38006f6d000065740000686900006e67000022
:103b480020770000656900007264000020690000a9
:103b5800732000006861000070700000656e00004e
:103b6800696e000067200000776900007468000033
:103b7800207400006865000020740000696d000072
:103b88006572000031200000696e00007465000055
:103b98007272000075700000740d00000a000000c9
:103ba8005b420000545d00002d2d00003e20000007
:103bb8003c3300000d0a0000005b00004254000086
:103bc8005d2d00002d3e00002050000049550000ea
:103bd800204300006f6e00006e65000063740000f3
:103be800696f00006e2000004c6f000073740000c5
:103bf8000d0a0000005b0000495200005d2d000026
:103c08002d3e000020270000252e000032780000fd
:103c18002c2500002e320000782c0000252e0000f4
:103c2800327800002c2500002e320000782c00008d
:103c3800252e0000327800002c2500002e320000ce
:103c4800782700000d0a0000004900006e7300008c
:103c580065720000742000006b6500007973000035
:103c6800005000006f720000746100006c73000067
:103c7800206300006c6f00007365000064000000a2
:103c8800536b0000792000004b65000079000000ac
:103c9800576f0000726c0000643a00002057000063
:103ca800696e000064000000417100007561000049
:103cb800204b000065790000005700006f7200007b
:103cc8006c6400003a200000576100007465000031
:103cd80072000000466c0000616d00006520000065
:103ce8004b65000079000000576f0000726c0000ff
:103cf800643a000020460000697200006500000078
:103d080041720000632000004b650000790000004c
:103d1800576f0000726c0000643a0000204c0000ed
:103d280069670000687400006e6900006e67000033
:103d3800005300006b79000020260000204100009d
:103d480071750000612000004b6500007973000068
:103d5800005700006f7200006c6400003a200000f9
:103d68004963000065000000466c0000616d0000ba
:103d7800652000002620000041720000632000003a
:103d88004b65000079730000005700006f72000057
:103d98006c6400003a200000506c00006173000061
:103da8006d610000005b000069720000636f000035
:103db8006d7000006c650000746500003e490000ed
:103dc80052640000697200006563000074690000b5
:103dd8006f6e00005d4300007572000072650000a0
:103de8006e740000706f000072740000616c000057
:103df80020690000732000006561000072740000f3
:103e0800680d00000a0000005b6900007263000092
:103e18006f6d0000706c000065740000653e000066
:103e28004952000064690000726500006374000074
:103e3800696f00006e5d000043750000727200003b
:103e4800656e000074200000706f0000727400003e
:103e5800616c00002069000073200000657200009a
:103e6800726f00006e6500006f750000730d000032
:043e78000a0000003c
:020000040000fa
:103e7c000000fa000002eb00443a880040a7a900b9
:103e8c000082eb0064198800c082a900c042a9001e
:103e9c00c442a900c482a80005368000f40f2e008d
:103eac00848262000430200005027200043688000f
:103ebc000536800004fe2f00048262005400b3001b
:103ecc00043688002535800004fe2f000482620031
:103edc000410a000243588003535800004fe2f0026
:103eec00048262003400b300343588002002a9003b
:103efc00041180000410a1000420a100041188000a
:103f0c0020a2a9002062a9005400200044118800be
:103f1c0021e2a8002342a8003002a90084118000ed
:103f2c000410a1000420a1008411880030a2a90073
:103f3c003062a90054002000c411880031e2a800ae
:103f4c003342a800141180000460a1000470a10089
:103f5c00141188004405800004c0a00004d0a10006
:103f6c0004e0a000440588008560a9009560a800c5
:103f7c00940580000480a1000490a00004a0a0007f
:103f8c009405880087c0a90097c0a80005e1a90086
:103f9c002405800004c0a00004d0a10004e0a0000f
:103fac00240588008460a9009460a8000441a9003d
:103fbc00240880004222de00614262000482fb0081
:103fcc00610262000402420026088000d5ff2f0027
:103fdc0085026300050272002408880004c1a90050
:103fec00240880000440a0000450a000240888008d
:103ffc000002eb000408880004082700140888005d
:10400c003405800004c0a00004d0a10004e0a0008e
:10401c003405880084e0a90094e0a8001021a900d0
:10402c00840880000440a0000450a000840888008c
:10403c0010c1a90011e1a9000002eb0034088800ae
:10404c000484230064088800440580000400a00058
:10405c000410a1000420a000440588008500a900dc
:10406c009500a8001221a900940880000440a0002b
:10407c000450a0009408880012c1a90013e1a90003
:10408c000002eb0054088800045a200074088800d1
:10409c008405800004c0a00004d0a10004e0a000ae
:1040ac00840588008760a9009760a8001e21a900dc
:1040bc00f40880000440a0000450a000f40888001c
:1040cc001ec1a9001fe1a9000002eb00a408880092
:1040dc0004092000d4088800940580000400a10085
:1040ec000410a0000420a100940588008780a8007b
:1040fc009780a8002021a900040980000440a0009a
:10410c000450a0000409880020c1a90021e1a800e6
:10411c000002eb00c40888000082eb00e408880071
:10412c00ab11070009120700a4120700f0172000ba
:10413c0001002000961707000080fa00000006001e
:10414c000c00fa00004f980051079800de00900018
:10415c000e489000200007005e0290008404b0001e
:10416c008e00780004007800f00007008100200029
:10417c000e0078006a030700145d800004007800cc
:10418c00cf80de0001017800820178000400240059
:10419c00850320006033b80061f207000203be0003
:1041ac000002be000400be000601be00843e2000da
:1041bc00050020006033b800f0f107000203be00d8
:1041cc000002be000402be000400be00701707000f
:1041dc000080fa00000006000c00fa00004f980066
:1041ec00510798005e0290000405b0008e00780024
:1041fc0004007800cd0007004e4290008442780005
:10420c000e4a900004c24200444798006e4290004f
:10421c00844278000e4a900004c252006447980011
:10422c00810020000e0078003d030700145d800023
:10423c0004007800cf80de00010178008201780054
:10424c0004002400850320006033b80034f207001a
:10425c000203be000002be000400be000601be0048
:10426c00843e2000050020006033b800c3f1070035
:10427c000203be000002be000402be000400be0029
:10428c00431707000080fa00000006000200fa0045
:10429c00000f78009e027800788242008100200096
:1042ac00040078001e030700145d800004007800f1
:1042bc00cf80de0001017800820178000400240028
:1042cc00850320006033b80015f207000203be001e
:1042dc000002be000400be000601be00843e2000a9
:1042ec00050020006033b800a4f107000203be00f3
:1042fc000002be000402be000400be00241707002a
:10430c000080fa00000006000c00fa00400798003c
:10431c00510798005e0290000404b0008e007800f3
:10432c0004007800810007004e02900004427800df
:10433c00444798006e429000844278004e029000f0
:10434c000442780004c252006447980081002000a7
:10435c000e007800f2020700145d80000400780063
:10436c00cf80de0001017800820178000400240077
:10437c00850320006033b800e9f107000203be009a
:10438c000002be000400be000601be00843e2000f8
:10439c00050020006033b80078f107000203be006e
:1043ac000002be000402be000400be00f8160700a6
:1043bc000080fa00000006000a00fa00400798008e
:1043cc004e02900070024200810020000400780030
:1043dc00d3020700145d800004007800cf80de005b
:1043ec0001017800820178000400280005072000f4
:1043fc006033b800caf107000203be000002be0021
:10440c000400be000601be00843e20000500200012
:10441c006033b80059f107000203be000002be0071
:10442c000402be000400be00d91607004e02900024
:10443c000404b0008e007800040078003b000700f4
:10444c00e4c1b30044479800810020000e007800be
:10445c00b3020700145d800004007800cf80de00fa
:10446c000101780082017800040028000507200073
:10447c006033b800aaf107000203be000002be00c0
:10448c000400be000601be00843e20000500200092
:10449c006033b80039f107000203be000002be0011
:1044ac000402be000400be00b91607004e029000c4
:1044bc008402b0008e007800040078001b00070016
:1044cc00810020000e00780095020700145d80002a
:1044dc0004007800cf80de000101780082017800b2
:1044ec0004002800050720006033b8008cf1070099
:1044fc000203be000002be000400be000601be00a6
:10450c00843e2000050020006033b8001bf107003a
:10451c000203be000002be000402be000400be0086
:10452c009b1607000080fa00000006000600fa0047
:10453c0010079800210798000002eb00040f780088
:10454c00090037001e027800ae029000048242007f
:10455c009e0278001e03900085024300954278006d
:10456c00054a78001e0fe8001e027800e70f520083
:10457c00f4ff34000080fa00000006000400fa008a
:10458c00100798000002eb00040f780011003700b0
:10459c0002032000f10f200020b22000d1f107000f
:1045ac00f110070000002d002100200078160700f4
:1045bc00020320008000eb0020b22000c9f10700ac
:1045cc00e910070000002d002100200070160700e4
:1045dc001e0fe8001e0290009e027800848f52008d
:1045ec00ebff35000080fa00000006000400fa0022
:1045fc00100798000002eb00040f780069003700e8
:10460c000002eb00145988000002eb0024598800ca
:10461c00f4ff200034598800f4ff2000445988002e
:10462c000002eb00545988000002eb00645988002a
:10463c000002eb00745988000002eb0084598800da
:10464c00f4ff200094598800f4ff2000a45988003e
:10465c000002eb00b45988000002eb00c45988003a
:10466c000002eb00d45988000002eb00e4598800ea
:10467c00f4ff2000f4598800f4ff2000045a88004d
:10468c000002eb00145a88000002eb00245a880048
:10469c000002eb00345a88000002eb00445a8800f8
:1046ac00f4ff2000545a8800f4ff2000645a88005c
:1046bc000002eb00745a88000002eb00845a880058
:1046cc00a910070000002700810020003016070009
:1046dc00f4ff2000145988000002eb0024598800d4
:1046ec000002eb00345988000002eb0044598800aa
:1046fc000002eb0054598800f4ff20006459880034
:10470c00f4ff2000745988000002eb0084598800e3
:10471c000002eb00945988000002eb00a4598800b9
:10472c000002eb00b4598800f4ff2000c459880043
:10473c00f4ff2000d45988000002eb00e4598800f3
:10474c000002eb00f45988000002eb00045a8800c8
:10475c000002eb00145a8800f4ff2000245a880051
:10476c00f4ff2000345a88000002eb00445a880001
:10477c000002eb00545a88000002eb00645a8800d7
:10478c000002eb00745a8800f4ff2000845a880061
:10479c00751007000000270081002000fc150700a1
:1047ac001e0fe8001e0290009e027800848f5200bb
:1047bc0093ff35000080fa00000006000200fa00aa
:1047cc000002eb00040f78001100370053f10700d2
:1047dc0000027800a5002000110009000502d80095
:1047ec000102780084027800840c200004aab9002d
:1047fc0004027800840278001e0278000403420050
:10480c0024b2200004024300050a78001e0fe800c1
:10481c001e027800f80f5200ecff34005210070013
:10482c000080fa00000006000000fa000082eb0095
:10483c00a458880013e1a9004012290003060700c0
:10484c0004c220001442780041ba200004407800d1
:10485c003bfe070090122900fc050700f01229000e
:10486c0063010700c4d22000846a88000080fa002b
:10487c00000006000000fa000002eb00a4588800bb
:10488c000002eb00045c880013e1a9000002eb00bd
:10489c000458880005e1a90040122900eb05070027
:1048ac0024c220001442780041ba20000440780051
:1048bc0023fe070090122900e405070000002200e7
:1048cc00c1012000b215070040122900df050700c6
:1048dc00e4c120001442780041ba20000440780062
:1048ec003dfe070090122900d805070024d12000b6
:1048fc00846a8800301429003d0107000080fa000a
:10490c00000006000000fa0014002000a4588800e3
:10491c0034c1b3000443780055b02000864a7800b7
:10492c0044c6b3000443780065b02000864a780082
:10493c00e4012000d45b88000002eb00045c8800da
:10494c0013e1a80040122900c005070014c2200082
:10495c001442780041ba200004407800f8fd0700aa
:10496c0090122900b905070000002800310420002e
:10497c0087150700a45b8000b45b880005e1a800e4
:10498c0040122900b105070054c1200014427800e0
:10499c0041ba2000044078000ffe07009012290055
:1049ac00aa050700f811070044c22000846a880099
:1049bc00c01529000e0107000080fa000000060057
:1049cc000000fa0024002000a458880094c0b30012
:1049dc000443780055b02000864a780044c6b300e2
:1049ec000443780065b02000864a7800b4042000a7
:1049fc00d45b88000002eb00045c880013e1a80083
:104a0c00401229009105070014c2200014427800be
:104a1c0041ba200004407800c9fd0700901229001b
:104a2c008a050700000028003104200058150700f3
:104a3c00a45b8000b45b880005e1a800401229004b
:104a4c008205070064c120001442780041ba20009e
:104a5c0004407800e0fd0700901229007b05070058
:104a6c00dd11070084c52000846a880050192900d4
:104a7c00df0007000080fa00000006000000fa00ca
:104a8c0054002000a458880054c1b300044378009b
:104a9c0055b02000864a780044c6b3000443780021
:104aac0065b02000864a780024032000d45b88007f
:104abc000002eb00045c880013e1a80040122900fe
:104acc006205070014c220001442780041ba20008d
:104adc00044078009afd0700901229005b0507003e
:104aec00000028003104200029150700a45b800079
:104afc00b45b880005e1a8004012290053050700ab
:104b0c0084c120001442780041ba2000044078008f
:104b1c00b1fd0700901229004c050700ea110700af
:104b2c0044ca2000846a8800f01c2900b0000700e9
:104b3c000080fa00000006000000fa00340020009b
:104b4c00a458880074c0b3000443780055b020000a
:104b5c00864a780064c9b3000443780065b020002d
:104b6c00864a7800a4002000d45b88000002eb0089
:104b7c00045c880013e1a8004012290033050700eb
:104b8c0014c220001442780041ba2000044078007e
:104b9c006bfd0700901229002c050700000028006f
:104bac0031042000fa140700a45b8000b45b880079
:104bbc0005e1a800401229002405070044c120008b
:104bcc001442780041ba20000440780082fd0700ae
:104bdc00901229001d05070093110700e4c3200063
:104bec00846a880080202900810007000080fa0078
:104bfc00000006000000fa0044002000a4588800c1
:104c0c0094c1b3000443780055b02000864a780064
:104c1c0044c1b3000443780065b02000864a780094
:104c2c0054002000d45b88000002eb00045c880078
:104c3c0013e1a800401229000405070014c220004b
:104c4c001442780041ba2000044078003cfd070073
:104c5c0090122900fd0407000000280031042000f8
:104c6c00cb140700a45b8000b45b880005e1a800ae
:104c7c0040122900f504070074c12000144278008a
:104c8c0041ba20000440780053fd0700901229001f
:104c9c00ee04070078110700a4c72000846a88007e
:104cac0020242900520007000080fa0000000600b2
:104cbc000000fa0064002000a458880014c0b3005f
:104ccc000443780055b02000864a780044c6b300ef
:104cdc000443780065b02000864a7800a4002000c8
:104cec00d45b88000002eb00045c880013e1a80090
:104cfc0040122900d504070014c220001442780089
:104d0c0041ba2000044078000dfd070090122900e4
:104d1c00ce04070000002800310420009c1407007a
:104d2c00a45b8000b45b880005e1a8004012290058
:104d3c00c604070094c120001442780041ba200038
:104d4c000440780024fd070090122900bf040700de
:104d5c007111070064ce2000846a8800b0272900f6
:104d6c00230007000080fa00000006000000fa0093
:104d7c0074002000a458880013e1a900a45b8000f3
:104d8c00b45b880005e1a80040122900af040700bd
:104d9c0014c220001442780041ba2000044078006c
:104dac00e7fc070090122900a80407004012290014
:104dbc00a604070044b820001442780041ba200031
:104dcc000440780004fd0700901229009f0407009e
:104ddc005000200005fe070084cf2000846a880064
:104dec00702b2900020007000080fa00000006006a
:104dfc000800fa003007980014002000945888002e
:104e0c003e009000f0ef07000002780014079800b5
:104e1c000002eb00040f7800110037001e0278002e
:104e2c00be029000048242009442780045479800ec
:104e3c00151180000420200004826200e00f520053
:104e4c0004003a004e4290000402fb00241188003a
:104e5c00020037001e0fe900000000001e0fe800e2
:104e6c001e0290009e027800848f5200ebff3500ea
:104e7c000002eb00845888000002eb00040078006c
:104e8c000080fa00000006000800fa0030079800c5
:104e9c0014002000845888003e009000caef0700e0
:104eac0000027800140798000002eb00040f780051
:104ebc00110037001e027800be02900004824200ee
:104ecc0094427800454798009511800004202000fa
:104edc0004826200e00f520004003a004e4290003f
:104eec000402fb00a4118800020037001e0fe90029
:104efc00000000001e0fe8001e0290009e027800c9
:104f0c00848f5200ebff35000002eb0084588800c0
:104f1c000002eb00040078000080fa00000006009c
:104f2c000a00fa0030079800410798004e029000e2
:104f3c00140798000002eb00040f780011003700f2
:104f4c001e027800be029000048242009442780057
:104f5c00454798001511800004202000048262004f
:104f6c00e00f520004003a004e4290000402fb0095
:104f7c0024118800020037001e0fe9000000000019
:104f8c001e0fe8001e0290009e027800848f5200d3
:104f9c00ebff35000002eb00040078000080fa0003
:104fac00000006000a00fa0030079800410798003c
:104fbc004e029000140798000002eb00040f7800da
:104fcc00110037001e027800be02900004824200dd
:104fdc0094427800454798009511800004202000e9
:104fec0004826200e00f520004003a004e4290002e
:104ffc000402fb00a4118800020037001e0fe90018
:10500c00000000001e0fe8001e0290009e027800b7
:10501c00848f5200ebff35000002eb000400780097
:10502c000080fa00000006003a00fa006302470014
:10503c0092002000612c29000400780022ef070068
:10504c00f02c29006aff0700630247000400780077
:10505c0067ff0700a02d290065ff070063024700ca
:10506c000400780058ef070000027800f58f20004c
:10507c000502420084007800f08f20004cef0700fe
:10508c00743d2900fc02470003000900b45a780063
:10509c004400b1007c02470032002000f18f200058
:1050ac000400780008ef070031902000f08f2000fa
:1050bc003fef0700e02d29004dff07007c02470061
:1050cc00040078004aff0700a02d290048ff0700c4
:1050dc00e4c7b30024479800f48f200014427800f2
:1050ec002447980001902000f08f200030ef07003b
:1050fc00040220000e024200920120008000eb000e
:10510c0004007800f7ee0700040220000e024200b3
:10511c00040078002cef0700000278000502200044
:10512c008e8242000482420092002000a12e2900af
:10513c0004007800e4ee0700040220000e02420096
:10514c000400780020ef07000002780004024700fa
:10515c00ae42900005629800040220000e0242004c
:10516c000400780018ef0700000278000502200008
:10517c008e8242000482420042002000a12d2900b0
:10518c0004007800d0ee0700040220000e0242005a
:10519c000400780016ff0700f20f20008000eb00df
:1051ac00f08f2000cfee0700ae42900014c3b30086
:1051bc0084cf520003003a0014002000040f780042
:1051cc000f003700ae42900004c3b30084cf5200ee
:1051dc0003003a000002eb00040f780008003700cf
:1051ec00302f290002ff0700f20f20008000eb0097
:1051fc00f08f2000bbee070014002000d300370016
:10520c007c024700a130290004007800e1ee070081
:10521c0000027800e00f52000d003a00e030290047
:10522c00f3fe07001e02780004427800614262001f
:10523c000482fb006102620026168000e5ff2f004d
:10524c00850263000502720024168800be00370038
:10525c007c024700c131290004007800cdee070024
:10526c0000027800e00f52000e003a0000322900d4
:10527c00dffe07001e0278000442780061426200e3
:10528c000482fb00610262000402420026168000c8
:10529c00d5ff2f00850263000502720024168800da
:1052ac00a90037007c024700e13229000400780095
:1052bc00b8ee070000027800e00f52000e003a0032
:1052cc0020332900cafe07001e0278000442780031
:1052dc00614262000482fb00610262004222dd0036
:1052ec0026168000b5ff2f008502630005027200b0
:1052fc0024168800940037007c02470001342900f2
:10530c0004007800a3ee070000027800e00f5200c2
:10531c000e003a0040342900b5fe07001e0278004a
:10532c0004427800614262000482fb006102620068
:10533c004322dd002616800075ff2f0085026300d6
:10534c0005027200241688007f0037007c0247009b
:10535c0021352900040078008eee07000002780049
:10536c00e00f52000e003a0060352900a0fe070045
:10537c001e02780004427800614262000482fb0045
:10538c00610262004422dd0026168000f5fe2f002b
:10539c008502630005027200241688006a0037003b
:1053ac007c024700413629000400780079ee0700a2
:1053bc0000027800e00f52000d003a008036290000
:1053cc008bfe07001e0278000442780061426200e6
:1053dc000482fb006102620066168000e5ff2f006c
:1053ec0085026300050272006416880056003700bf
:1053fc007c024700613729000400780065ee070045
:10540c0000027800e00f52000e003a00a03729008d
:10541c0077fe07001e0278000442780061426200a9
:10542c000482fb00610262000402420066168000e6
:10543c00d5ff2f00850263000502720064168800f8
:10544c00410037007c0247008138290004007800b5
:10545c0050ee070000027800e00f52000e003a00f8
:10546c00c038290062fe07001e0278000442780052
:10547c00614262000482fb00610262004222dd0094
:10548c0066168000b5ff2f008502630005027200ce
:10549c00641688002c0037007c024700a1392900d3
:1054ac00040078003bee070000027800e00f520089
:1054bc000e003a00e03929004dfe07001e0278006c
:1054cc0004427800614262000482fb0061026200c7
:1054dc004322dd006616800075ff2f0085026300f5
:1054ec000502720064168800170037007c02470022
:1054fc00c13a29000400780026ee0700000278006b
:10550c00e00f52000e003a00003b290038fe070065
:10551c001e02780004427800614262000482fb00a3
:10552c00610262004422dd0066168000f5fe2f0049
:10553c0085026300050272006416880002003700c1
:10554c00e03b29002afe07000002eb000400780073
:10555c000080fa00000006003a00fa0063024700df
:10556c00a2002000c13d290004007800d6ed070000
:10557c00f02c29001efe070063024700040078008f
:10558c001bfe0700a02d290019fe0700630247002f
:10559c00040078000cee070000027800f58f200064
:1055ac000502420084007800f08f200000ee070016
:1055bc00743d2900fc02470003000900b45a78002e
:1055cc004400b1007c02470032002000f18f200023
:1055dc0004007800bced070031902000f08f200013
:1055ec00f3ed0700e02d290001fe07007c024700c7
:1055fc0004007800fefd0700a02d2900fcfd07002b
:10560c00e4c7b30024479800f48f200014427800bc
:10561c002447980001902000f08f2000e4ed070053
:10562c00040220000e024200920120008000eb00d8
:10563c0004007800abed0700040220000e024200cb
:10564c0004007800e0ed070000027800050220005d
:10565c008e8242000482420092002000a12e29007a
:10566c000400780098ed0700040220000e024200ae
:10567c0004007800d4ed0700000278000402470013
:10568c00ae42900005629800040220000e02420017
:10569c0004007800cced0700000278000502200021
:1056ac008e8242000482420042002000a12d29007b
:1056bc000400780084ed0700040220000e02420072
:1056cc0004007800cafd0700f20f20008000eb00f8
:1056dc00f08f200083ed0700ae42900014c3b3009e
:1056ec0084cf520003003a0014002000040f78000d
:1056fc000f003700ae42900004c3b30084cf5200b9
:10570c0003003a000002eb00040f78000800370099
:10571c00302f2900b6fd0700f20f20008000eb00af
:10572c00f08f20006fed070014002000a900370057
:10573c007c024700a13029000400780095ed070099
:10574c0000027800e00f52000d003a00e030290012
:10575c00a7fd07001e027800044278006142620037
:10576c000482fb006102620006168000e5ff2f0038
:10577c00850263000502720004168800940037004d
:10578c007c024700c13129000400780081ed07003c
:10579c0000027800e00f52000e003a00003229009f
:1057ac0093fd07001e0278000442780061426200fb
:1057bc000482fb00610262000402420006168000b3
:1057cc00d5ff2f00850263000502720004168800c5
:1057dc007f0037007c024700e1322900040078008a
:1057ec006ced070000027800e00f52000e003a004a
:1057fc00003229007efd07001e027800044278006a
:10580c00614262000482fb00610262004222dd0000
:10581c0006168000b5ff2f0085026300050272009a
:10582c00041688006a0037007c0247000134290006
:10583c000400780057ed070000027800e00f5200da
:10584c000e003a000032290069fd07001e027800a4
:10585c0004427800614262000482fb006102620033
:10586c004322dd000616800075ff2f0085026300c1
:10587c000502720004168800550037007c024700b0
:10588c00413629000400780042ed07000002780040
:10589c00e00f52000d003a008036290054fd07003d
:1058ac001e02780004427800614262000482fb0010
:1058bc006102620046168000e5ff2f00850263003e
:1058cc000502720044168800410037007c02470034
:1058dc0061372900040078002eed070000027800e3
:1058ec00e00f52000e003a00a037290040fd0700df
:1058fc001e02780004427800614262000482fb00c0
:10590c00610262000402420046168000d5ff2f009f
:10591c008502630005027200441688002c003700d3
:10592c007c024700813829000400780019ed07003b
:10593c0000027800e00f52000e003a00c038290037
:10594c002bfd07001e0278000442780061426200c1
:10595c000482fb00610262004222dd0046168000d8
:10596c00b5ff2f0085026300050272004416880003
:10597c00170037007c024700a13929000400780089
:10598c0004ed070000027800e00f52000e003a0010
:10599c00e039290016fd07001e0278000442780049
:1059ac00614262000482fb00610262004322dd005e
:1059bc004616800075ff2f008502630005027200f9
:1059cc004416880002003700e03b290008fd070060
:1059dc000002eb00040078000080fa0000000600d2
:1059ec001a00fa000e02e80082002000613e290035
:1059fc0004007800b4ec0700f02c2900fcfc070034
:105a0c000e02e80004007800f9fc0700a02d290024
:105a1c00f7fc07000e02e80004007800eaec07002f
:105a2c0000027800f58f2000050242008400780007
:105a3c00f08f2000deec0700f48f20001442780079
:105a4c00044f7800f20f20008000eb00f08f200054
:105a5c00a4ec070014c3b3009e42780084cf52001c
:105a6c000d003a0011e1a900c442a800c482a900ab
:105a7c00000027008100200045110700c482a80007
:105a8c00c04c2b00b102200041110700e03e290060
:105a9c00d7fc07001300370004c3b3009e42780004
:105aac0084cf52000c003a00c442a900c482a90061
